:020000040800F2
:100000000000032093470008573200089D31000884
:1000100000000000000000000000000000000000E0
:10002000000000000000000000000000673200082F
:100030000000000000000000013000085519000811
:10004000E3320008DB340008DF3400085F360008C4
:100050006B3700083F390008BF3C00080B3D000823
:10006000873D0008933E0008933F0008D7400008F2
:100070003B410008B7410008B9410008BB410008F6
:10008000BD410008BF410008C1410008C34100084C
:10009000C5410008C7410008C9410008CB4100081C
:1000A000CD410008CF410008D1410008D3410008EC
:1000B000D5410008D7410008D9410008DB410008BC
:1000C000DD410008DF410008E1410008E34100088C
:1000D000E5410008E7410008E9410008EB4100085C
:1000E000ED410008EF410008F1410008F34100082C
:1000F000F5410008F7410008F9410008FB410008FC
:10010000FD410008FF4100080142000803420008C9
:100110000542000807420008094200080B42000897
:100120000D4200080F420008114200081342000867
:1001300015420008693200081742000819420008F9
:100140001B4200081D4200081F4200083D410008F4
:1001500021420008234200082542000827420008E7
:10016000294200082B4200082D4200082F420008B7
:100170003142000833420008354200084D42000871
:1001800037420008394200083B4200083D4200085F
:100190003F4200084142000843420008454200082F
:0C01A00047420008494200084B4200089A
:1001AC00034C206804348047FBE704F04AF8FEE770
:0401BC00FC490008F2
:1001C00010B50446406D40B104F084FA03488068DD
:1001D000A04202BF02480021016010BD00000010D3
:0401E0001C280010C7
:1001E40010B50D488168B1B18069A0B904F0DDFA99
:1001F40088B90A4C207858B900F0F8FD207828B95D
:100204000121204600F8041B00F076FA00F0F2F811
:10021400201D00F0BBFA10BD000000105C27001088
:1002240080B50748816821B1806910B904F0BDFA2E
:1002340000B108BD03480430BDE8084000F016BB17
:08024400000000105C2700100F
:08024C000048704700FC02208D
:1002540001480249081A704700FC022000000320EC
:1002640081B06846EFF31081016072B60D490E4A01
:10027400535843F47F035350016881F310884FF0BF
:1002840000709060106840F0404010600020EFF370
:10029400148020F0040080F31488BFF36F8F01B042
:0C02A400704700BFECFDFFFF34EF00E0EE
:1002B000EFF3058068B10E2801D1042009E005495B
:1002C0000F2888BF044909564FF001000029A8BF34
:0C02D0000220704714ED00E0F0E300E0B5
:0C02DC000149C863704700BF000000101B
:1002E8002DE9F0414FF0800080F3118800BF00BF76
:1002F800144ED6E90A78144DE86880470446286900
:10030800804728B1013748F10008E868804704466B
:10031800707818B94FF0000080F311886869A7FB5E
:10032800001208FB00220023001B63F100082D7A4D
:10033800002D1CBF98462046401848EB0201BDE836
:0C034800F08100BF00000010A027001092
:100354002DE9F0410446164FF86B28B104F02DFA4C
:10036400014640F21B10B0471248014694E86C0164
:1003740081E86C01D0E90012B1FBF2F242610E4A4D
:100384000E46134636B13446B3FBF6F505FB163676
:100394002346F7E7B1FBF3F1B2FBF3F2C0E9062120
:1003A400F86B18B1816C40F21B108847BDE8F081EE
:0C03B40000000010A027001040420F00C5
:1003C00070B50B4EF06B10B1816AD6208847FFF7ED
:1003D0008BFF084AD2E9063203F09BFF04460D4624
:1003E000F06B18B1C26CD6202146904703F098BF3D
:0803F00000000010A02700101E
:1003F80010B5134C207801382070207800B110BD5A
:1004080060680028FBD04FF0800080F3118800BF9F
:1004180000BF606860B101202070E06B18B1026A0B
:10042800A068017C9047204602F071FE00202070F1
:1004380060780028E3D14FF0000080F31188DEE7F0
:0404480000000010A0
:10044C002DE9F84F9B4690468A460446244DE86BAE
:10045C000DF1280999E8C00268B1D946D0E90EB16E
:10046C0020468847014600972E2042463346D847FF
:10047C00CB46DDF830902046582102F073FDC4E9DC
:10048C00058884F84990C4E90AA7266315480078C2
:10049C00207430463946CD2202F065FDE86B30B150
:1004AC00016920468847E86B08B103F03DFFB81995
:1004BC00583820F007000BF10201C0E913B14FF0DE
:1004CC008071094A03F029FF01606060204600F04A
:1004DC00D7FBE86B10B1816C2E208847BDE8F88FF4
:0C04EC0000000010422800109D300008A5
:1004F80038B50446084DE86B18B1C26A2A2021466F
:100508009047286A204400F009F8E86B10B1816C24
:0C0518002A20884738BD00BF00000010FA
:1005240001460C4A106A081A012811DB0A480078AF
:1005340058B14FF0800080F3118800BF00BF90686D
:1005440004220274C16000F0F1BB106A401AFCD4AA
:0C055400704700BF00000010412800109C
:1005600070B504460C4DE86B28B104F02CF9014637
:1005700040F21510B047002C08BFAC680CB1A46A5B
:1005800000E0064CE86B20B1C26C40F21510214629
:100590009047204670BD00BF0000001008490008C9
:1005A00070B504460C4DE86B38B104F00CF9014607
:1005B0004FF48B70B047E86B00E00020002C08BFC0
:1005C000AC6894F8484020B1C26C4FF48B7021465F
:0C05D0009047204670BD00BF00000010E6
:1005DC0070B504462D4DE86B20B104F0EEF80146E1
:1005EC002F20B04700F0FEFB002C08BFAC68284E53
:1005FC0036681EB1716820468847F9E7244841687F
:10060C0009B1204688472046FFF7D4FD4FF0800003
:10061C0080F3118800BF00BFA06810B1204603F022
:10062C00A4FE204603F09AFE1A480168A14204BFBA
:10063C0000210160687818B94FF0000080F3118830
:10064C002869844204BFE8682861E86B38B1016D01
:10065C0020468847E86B10B1816C2F208847A8682A
:10066C0084420FD14FF0800080F3118800BF00BF8F
:10067C00A968E86B00220A6008B1806980470348CA
:10068C0002F043FDFFF7B2FE70BD00BF000000108A
:08069C00C027001058000010F7
:1006A40038B5134CE06B18B1816A4FF491708847E8
:1006B400606B10B103F04CFE0CE003F03CFE5CBF39
:1006C4000120607194F8410020B103F046FE04BF9C
:1006D40001202071074D2D6815B168688047FAE73D
:1006E400E06B18B1816C4FF49170884738BD00BF3E
:0806F40000000010182800109E
:1006FC0070B504460E4DE86B20B104F062F801466B
:10070C005220B0470B480C4901600020C4E900009E
:10071C00C4E9020000F066FB08480168A1600460AF
:10072C00FFF764FEE86B10B1816C5220884770BDF6
:10073C0000000010C42700104D07000824280010EA
:10074C0070B504460E48002605685DB1287B30B1B3
:10075C006868A04203D12E73284600F0C9FA05F14F
:10076C000800F1E7A06848B18068054A116829B112
:10077C0001F108028142F9D100F034F870BD00BFDC
:04078C00242800100D
:1007900070B50446154EF06B30B1C56AC16B20468A
:1007A000884701465320A84700F022FB207B78B100
:1007B000B0686168814208D02046102100F0D2FA6A
:1007C000207B0028F8D1B0686060207B451C02E0E7
:1007D000B068606001252573FFF70EFEF06B18B15D
:1007E000C26C532029469047284670BD0000001077
:1007F000F8B504464068A8B3D0E905C6B44531D081
:100800000025194A12688AB1A24202D05368834275
:1008100001D00832F6E713461B68002BF9D0DF68D9
:100820007969B14284BF3D460E46F5E7664519D069
:100830004FF0800080F3118800BF00BF606803F0B4
:1008400093FD60684661294600F020FA0749487820
:1008500018B94FF0000080F31188C96B11B16068BE
:10086000C9688847F8BD00BF2428001000000010A8
:1008700070B504460E4DE86B20B103F0A8FF0146A9
:100880005420B04700F0B4FA207B01382073207B5D
:1008900028B92046FFF7ACFF204600F02FFAFFF7FB
:1008A000ABFDE86B10B1816C5420884770BD00BF70
:0408B0000000001034
:1008B400F8B59C4C00256570012020704FF0800035
:1008C40080F3118800BF00BF206B50B16178013103
:1008D4006170804784F83850C4E90C556078013859
:1008E40060704FF0000080F31188FFF7ADFC0078D2
:1008F400CD2802D07D2001F00BF8A06898B1016BDF
:100904000978CD2904D0782001F002F8A06850B10C
:10091400054655F84C1F31B14068096888476D6831
:100924000DB12968F9E794F8420000283DD0A06889
:1009340094F8411080F848102079002835D04FF001
:10094400800080F3118800BF00BF00202071A168DF
:100954004FF0000080F3118819B3086808B34B699D
:1009640042699A421DD10246006810B145699D4210
:10097400F9D04FF0800080F3118800BF00BF2069D8
:100984008842086808BF20614B6A436218604A6263
:100994001068086000B14162116092F8490082F861
:1009A40048004FF0000080F3118894F84000B8B17B
:1009B400C10709D0216A8E4A5268511A04D510F031
:1009C400FE0084F840000BD0FFF78CFCA16829B12D
:1009D400884A1268821ACB6B1A44CA638549086034
:1009E400A06820B1017C11B9816B01318163206958
:1009F40070B34FF0800080F3118800BF00BF2569F9
:100A040065B32E7C56B370070ED5216AE868411A87
:100A1400002904DD616A411A48BF606204E0284687
:100A240000F0EEF8287C98B106F0FB00102808D1FD
:100A3400A86880684068017C19B96969406988427E
:100A440006D1286820614FF0000080F31188D0E7B8
:100A54004FF0800080F3118800BF00BF002604F12E
:100A64000C07607900283AD06671206A00F1804052
:100A74006062E16909B1204688474FF0000080F3C5
:100A840011883D462D684FF0800080F3118800BF27
:100A940000BF002DE5D0206918B140696969814221
:100AA400DFD3287C400715D5216AE868411A00295C
:100AB4000CDC284600F0A4F84FF0800080F3118885
:100AC40000BF00BF287C0028CBD0E868616A411AC7
:100AD40048BF60624FF0000080F31188D2E7464AB5
:100AE4001078C00737D04FF0800080F3118800BF22
:100AF40000BF42490868236AC01A00282BDC236A15
:100B04001078C00721D04FF0800080F3118800BF17
:100B140000BF1078800707D423624FF0000080F3F1
:100B24001188EDE700000010107800F0FD0010704F
:100B34004FF0000080F31188206A8342FCD02362C6
:100B4400086801300860086860624FF0800080F334
:100B5400118800BF00BF002060602569ADB3287C08
:100B6400B0B1A868806846683168706A016031680D
:100B740001B1486268697061E06B10B1C1683046C8
:100B84008847012060703046294600F07DF82661D0
:100B94002069A060054655F84C1F39B14068496882
:100BA40088476D680DB12968F9E7A06890F8481086
:100BB40084F8421084F84110E16B11B14969884707
:100BC400A068416B013141630EE0E06B08B1406AFB
:100BD4008047002084F8410084F84200A06020701F
:100BE4004FF0000080F311880048F8BD00000010A9
:100BF400E0250010342800103F2800103028001091
:100C040038B505461F4CE06B10B1C16928468847CA
:100C1400A86820B1206AE860284603F0AAFB287C73
:100C240010F00300287427D1206918B1426969695A
:100C3400914205D92561207878B10120607119E0CD
:100C4400A842F8D0914217D12A46126892B153694A
:100C540099420FD18242F8D1ECE701202070E06B79
:100C640018B1026AA068017C9047204602F051FA4C
:100C740000202070607800B138BD4FF0000080F390
:080C8400118838BD00000010CA
:100C8C0038B50246194C207801302070506909B1F2
:100C9C000B6809E004F10C010B6823B15D69A842F3
:100CAC0002D21946F8E70023516213600A6043B17F
:100CBC005A62596981420CBF92F84900002082F8AF
:100CCC004800107C70B94FF0800080F3118800BF91
:100CDC0000BF1046FFF790FF607818B94FF0000086
:100CEC0080F31188FFF782FB38BD00BF00000010B5
:100CFC0010B504464FF0800080F3118800BF00BF90
:100D0C00206820B12068C068FFF776FFF2E704483E
:100D1C00407818B94FF0000080F3118810BD00BF67
:040D2C0000000010B3
:100D300038B50B4C2578207801302070A068017CF4
:100D400019B1E26B0AB1126A9047204602F0E3F94A
:100D50002570607818B94FF0000080F3118838BD15
:040D6000000000107F
:100D640013B582B0024601900A4B986803904FF085
:100D7400800080F3118800BF00BF146868461060CB
:100D8400009404B160609A6811749060FFF7CEFF1C
:080D94001FBD00BF00000010AC
:100D9C0038B504464FF0800080F3118800BF00BFC7
:100DAC000D4D687895F840100130687031B901200C
:100DBC0085F84000FFF792FA08490860286A6978BC
:100DCC0001396970204406494860687818B94FF0B9
:100DDC00000080F3118838BD00000010342800108A
:040DEC00E0250010EE
:100DF0000248017801310170704700BF0000001007
:100E000070B5FFF723FA084D29684C68061BFFF7F9
:100E100021FA32182868016F8A4203D8C06E214631
:0C0E200002F0A0F870BD00BF28280010F0
:100E2C000648006820B1064989680022C1E913020E
:100E3C000448006800B10047704700BF2C28001020
:080E4C00000000101428001042
:100E540038B5154800680078532803D113488079C1
:100E640008B1FEE7FEE7124800684CF6C801884264
:100E740018D110480124104D43F6FF716962C0E98E
:100E84000644FFF7EDF92C70FFF7DEF9044603F092
:100E94008AFC001BB0F1200103D02046CD2202F0D1
:100EA40066F838BDFEE700BF882F000864490008D3
:0C0EB400842F0008A02700100000001090
:100EC0004FF0800080F3118800BF00BF024801216D
:0C0ED000017002F0EDB800BF41280010D6
:100EDC0070B50546184EF06B38B1C46AC16B284624
:100EEC008847014640F22710A04730780130307017
:100EFC00B068002D08BF0546EC6B854211D14FF050
:100F0C00800080F3118800BF00BFFFF7E7F90B49A1
:100F1C000968401A0444707818B94FF0000080F347
:100F2C001188FFF763FAF06B20B1C26C40F2271006
:100F3C0021469047204670BD000000103428001058
:100F4C0010B5084CE06B50B1816A40F23B108847F9
:100F5C00E06B20B1C26C044940F23B109047024850
:0C0F6C0010BD00BF00000010F24800089B
:100F780010B5084CE06B50B1816A40F23D108847CB
:100F8800E06B20B1C26C044940F23D109047024822
:0C0F980010BD00BF00000010014900085F
:100FA40070B504460B4DE86B38B103F012FC0146F2
:100FB4004FF4A170B047E86B00E00020002C08BF9C
:100FC400AC68246B20B1C26C4FF4A17021469047E9
:080FD400204670BD0000001072
:100FDC0070B504460B4DE86B38B103F0F6FB0146D7
:100FEC0040F24310B047E86B00E00020002C08BF33
:100FFC00AC68E46A20B1C26C40F2431021469047C1
:08100C00204670BD0000001039
:10101400034800210170417081700161704700BF75
:041024004800001070
:101028002DE9F8438E4E3179701890F820004A1C4B
:101038003271432805D103F0B6F9716919B18847AF
:1010480001E0738913B10020BDE8F883012373819F
:10105800844F3870532871D063283FD06C2800F033
:10106800818074284FD0732840F0F78041F288308F
:10107800FFF790FE7D4C206A7E4DA8472069A8475F
:10108800A068A8474CF6C80000F096F97089C728F0
:101098009FBF0121395401307081FFF753FF00F0E1
:1010A80001FAFFF765FF00F0FDF97089C7289FBFB7
:1010B8000021395401307081FFF7C4F803F06AF950
:1010C800FFF7C4F80446B0F57F4F05D34FF47F40CF
:1010D80040EA144000F070F92046BCE003F051F9F2
:1010E800044600F0C9F881082268B2F1CD3F04D166
:1010F800043401390A04F7D1002120F003008900E3
:1011080089B2401AA7E0DFF8648108F10C0503F002
:1011180038F9044690F810902D68A54230D0002D7B
:10112800FAD144F24E1000F047F97089C72800F24E
:10113800948054213954013070818EE003F033F9E2
:1011480002283FD0012843D0002840F08680464836
:10115800012101704548016A0131454A1160116851
:1011680041627AE002207081742078703F4800F173
:101178000C042468002C70D0204603F00BF9F8E723
:10118800FFF7AEF803F006F9D8F808502046FFF745
:10119800E3F900F087F9A5424D4608BF4FF0FF3547
:1011A800B9F1000F18BF4D4671896069FF2813D93E
:1011B800C7299FBF00227A540131718103F0EAF8F0
:1011C80070890EE02848017841F00201017044E07E
:1011D80025480021017040E0C72907D87854481CE9
:1011E8007081C7289EBF3D5401307081A06808B146
:1011F800806800E000201F4DA847E068A847204607
:10120800FFF7CCFEA8472046FFF764FEA847606BAF
:10121800A8472046FFF7DEFE0546B0F57F4F05D309
:101228004FF47F4040EA154000F0C6F8284600F029
:10123800C3F82046FFF7B0F97189C72909D878544F
:10124800481C7081C7291FBF94F849203A54881C4C
:101258007081D8F8200000F0AFF87089F4E600BF7C
:1012680048000010702400103F28001000000010F3
:08127800302800109D4300081E
:1012800010B50748017900F12002535C4C1CE4B210
:10129000125D0231017142EA032080B210BD00BF2D
:0412A00048000010F2
:1012A40070B5434DA878092812D8DFE800F005137B
:1012B4001B292D3E42464F56688910B9687800288C
:1012C40070D00020A8810120A87028708C2467E0C9
:1012D400002465E068890221002808BF0721A9705D
:1012E400ED245DE06C89F02C3DBF2C720420A870C5
:1012F400032021BFA870F02040EA14242C724FE090
:101304000420A870AC7A4BE0A889411CA9812A4A20
:10131400145C287A20442872688989B281423FD1BA
:10132400002068810520A8703AE00620A8702C7A75
:1013340036E00020A8708D2432E00820A870687878
:101344000130287268780130C4B229E00920A870FD
:10135400287A43302872432422E0A889A9690C5CC6
:101364000130A881697880B2884216D10520A8701E
:101374004FF0800080F3118800BF00BF00266E701C
:10138400286918B12869FFF73BFC2E6109484078A9
:1013940018B94FF0000080F31188287A204428728D
:1013A400204670BD002028704FF0FF34F8E700BFDE
:0C13B40048000010000000107024001021
:1013C00010B507494A89C72A09D8040A054B9C5415
:1013D000541C4C81C72A1EBF1855901C488110BD53
:0813E000480000107024001009
:1013E80010B5204C617905293BD8DFE801F0030BE3
:1013F8000F172930ED2834D10020E0704FF48070A9
:10140800A0802EE08C282AD1022029E0411EC9B2F2
:10141800082924D2E071A071032021E0E17807298E
:101428009FBF621882F820000131E170A179E2794A
:101438001044E071481EA071000612D104200FE08C
:10144800E1790844E071000609D1052008E08D28FB
:1014580005D1FFF7E5FD10B1608100F005F8002027
:08146800607110BD4800001086
:1014700080B54FF0800080F3118800BF00BF09489D
:10148000007830B9FFF70EFF002802D4C0B203F095
:10149000D8F90548407818B94FF0000080F311885A
:0C14A00008BD00BF480000100000001054
:1014AC0070B50146104D6E89C6F1C7041E2C28BFBD
:1014BC001E2430B10020844206D00A5C1AB10130DF
:1014CC00F9E7002400E00446C72E9FBF0748845567
:1014DC0001366E813CB1054810FA86F0224601F0C7
:1014EC003BFD3019688170BD48000010702400105D
:1014FC0082B04EF6885CCEF2000CDCF8001041F4A1
:10150C007001CCF8001043F60001C4F202014FF652
:10151C00FF70CFF6F6600A6842F001020A60002202
:10152C008A600B681840086043F21000C2F2004059
:10153C004860086820F480200860CA60019200921C
:10154C00086840F480300860086800F400300090AF
:10155C00019801300190009818B90198B0F5A04F8E
:10156C00F2D10868800354BF00200120009000983D
:10157C0001284DD1086C40F08050086447F20000FF
:10158C00C4F20000026842F440420260886888603D
:10159C00886840F400408860886840F4A0508860F7
:1015AC0045F20840C0F240704860086840F0807016
:1015BC00086000BF086880015FBF08685FEA8010A0
:1015CC0008685FEA801002D408688001F2D540F206
:1015DC000560C1F80004886820F003008860886802
:1015EC0040F00200886000BF886800F00C000828FA
:1015FC000ED0886800F00C00082809D0886800F02C
:10160C000C00082804D0886800F00C000828EBD1E6
:0C161C004FF000604CF8800C02B07047EA
:1016280043F60400C4F2020042F20041C0F2F401A1
:10163800426802F00C02082A06D0042A1DD141F2A1
:101648000021C0F27A0118E00268520241F2002239
:10165800C0F27A0258BF0A46016801F03F01B2FBA6
:10166800F1F10268C2F3881251430268C2F30142E1
:10167800022303EB4202B1FBF2F143F25012C1F232
:10168800000244F67C13C0F6000311604068C0F302
:0C1698000310185C21FA00F0106070478D
:1016A40010B542F64102C1F20002844610780028C7
:1016B40074D042F65000C1F200000278012A31D100
:1016C40042F60C00C1F20000006810F8171C002953
:1016D40064D010F8160CB8B94FF0800080F311886C
:1016E40000BF00BF42F64004C1F200042278002A81
:1016F40004BF0120207040F20000C1F200004078D5
:10170400002853D0002A57D042F63900C1F2000015
:1017140080F800C042F63C00C1F2000001210170D3
:1017240010BD00BF4EF60852CEF20002126822F03D
:101734003F0242F60C03C1F2000312681A6000244F
:1017440002F8174C1A68082102F8021C19681222C0
:1017540001F8032C196801F8184C196801F8164CA3
:101764001968522201F8012C42F63C01C1F2000131
:101774000C7001210170186842F2DC71C1F20001A1
:10178400A0F115020A6042F2E071C1F20001A0F179
:1017940020020A6010F8171C00299AD1FFF726FBD3
:1017A400FFF736FCBDE81040FEF724BE4FF0000002
:1017B40080F31188002AA7D1604600F003F80020C6
:0417C400207010BDC4
:1017C80038B542F2DC71C1F200010C6842F2D475FE
:1017D800C1F2000520702968002955D088470028E3
:1017E80052D460702868804700286FDBA070286892
:1017F800804700286CD4E07028688047002869D4A6
:10180800207128688047002866D46071286880475E
:10181800002863D4A07128688047002860D4E0714C
:101828002868804700285DD42072286880470028EF
:101838005AD4607228688047002857D4A072286854
:101848008047002854D4E07228688047002851D483
:1018580020732868804700284ED460732868804722
:1018680000284BD4A07328688047002848D4E07328
:1018780028688047002845D42074286880470028B5
:1018880042D46074122100E001214FF0800080F3FF
:10189800118800BF00BF42F2E870C1F200004FF4A7
:1018A8007A72026042F60C00C1F20000006800F88B
:1018B800161C40F20000C1F200004078002818BF52
:1018C80038BD4FF0000080F3118838BD0221DCE7F5
:1018D8000321DAE70421D8E70521D6E70621D4E772
:1018E8000721D2E70821D0E70921CEE70A21CCE772
:1018F8000B21CAE70C21C8E70D21C6E70E21C4E772
:0C1908000F21C2E71021C0E71121BEE74B
:1019140010B50446FFF76AFA40F20000C1F2000075
:10192400002141704FF0000080F3118842F63A0024
:10193400C1F20000048005E00188002908BF10BD41
:10194400018821B1018811B101880029F4D110BDA9
:1019540010B541F20000CEF200000068C00706D1C5
:1019640042F61000C1F2000001680131016040F24A
:101974000004C1F20004207801302070E06B08B14B
:1019840000688047FEF78CFE01F0AAFC207801284D
:1019940006D1606820B1E06B30B1806803E000BF1D
:1019A400E06B08B1406880474FF0800080F31188F5
:1019B40000BF00BF2078012804D16068002818BF48
:1019C40001F0BFFB2078013820704FF0000080F355
:0419D400118810BDA9
:1019D80010B586B04FF0800080F3118800BF00BFBB
:1019E80040F20004C1F20004607801306070FFF733
:1019F80017FE43F2501CC1F2000C44F6D351C1F259
:101A08006201DCF80020A2FB01124FF0FF3101EB6C
:101A180092134EF62352CEF200020021B1EB136F5F
:101A280009D14EF21000CEF200004360F02313708B
:101A3800816007230360E020107044F63300C0F68D
:101A48000000059044F62700C0F6000004908DF8C9
:101A58000C104FF47A700290DCF80000019001A895
:101A6800FEF774FC02F0F9FC41F2E930C0F6000020
:101A780002F0BFFE44F2E370C0F6000002F0BFFEC1
:101A880044F2DF70C0F6000002F0BFFE6078013853
:101A98006070607810B106B010BD00BF4FF0000054
:081AA80080F3118806B010BDA7
:101AB0002DE9F047884642F23851C1F20001144640
:101AC0000A78BABB03220A614A6144F64712C0F69B
:101AD00000028A6142F65103C1F20003CB614FF468
:101AE00080630B6200238B624B62CB620A6643F217
:101AF0003412C1F200024A6610228A660B67CB6676
:101B000045F25242C0F25402C1F807204B67BFF3BE
:101B10005F8F44F24752C0F25202C1F8032044F2F0
:101B20005352C4F247720A60BFF35F8F20228A715A
:101B3000BFF35F8F00EB400001EBC007B94659F8D7
:101B4000705F59F804AC554512D9D7E9190241190B
:101B5000561BA64228BF26464046324601F002FAEE
:101B60007019B96E451A18BF0546A41BB04400E0B1
:101B70000026AAEB0500A04238BF04463CB1786EAF
:101B800041194046224601F0EDF925442644002E35
:0C1B900018BFC9F800503046BDE8F087CF
:101B9C002DE9F04F85B042F64C05C1F200058346A5
:101BAC002878002800F00D8191460E46022842F25A
:101BBC00F87AC1F2000A41F20408CEF2000842F6AB
:101BCC004807C1F2000740F0968001208DF809000B
:101BDC000DF1090142F2F070C1F200004D1C0068D9
:101BEC0080281FD340F080028DF80A20C309002200
:101BFC00B2EB903F18D043F080028DF80B20830B92
:101C0C00B0F5001F12D343F080028DF80C20430D69
:101C1C00B0F1805F0CD343F080028DF80D20030FE0
:101C2C00043506E0034604E0013502E0023500E02D
:101C3C0003352A4602F8013BDAF80000D8F80040D8
:101C4C000194231ABE46802B22D3104643F0800702
:101C5C0000F8017BDF090025B5EB933F1CD047F062
:101C6C008007577002F1020C9F0BB3F5001F15D3C0
:101C7C0047F080009070D41C5F0DB3F1805F11D3DE
:101C8C0047F08000D070101D1F0F25460CE000BFE0
:101C9C001F46104608E000BF154605E005466046A5
:101CAC0002E000BF654620460770681A821C774622
:101CBC009EF8000001F078FA70B1019842F64C05DC
:101CCC00C1F20005CAF80000287801382870C0B2AB
:101CDC00012810D075E000BF42F2F071C1F2000192
:101CEC000868013042F64C05C1F2000508602878FE
:101CFC00C0B2012865D1B9F11F0F0BD842F2EC70BC
:101D0C00C1F20000006820FA09F0C00759D1B9F1FE
:101D1C00170F0DD9A6EB0B0080280DD340F08001D6
:101D2C000BF8021DC0098BF80100B9F1800F08D225
:101D3C000BF8019D0DE000BF0BF8010DB9F1800F00
:101D4C00F6D349F080000BF8020D4FEAD9108BF84E
:101D5C000100DAF80000D8F80080A8EB0000802819
:101D6C001ED3324640F0800102F8011BC10900234A
:101D7C00B3EB903F16D041F080017170810BB0F540
:101D8C00001F3FD341F08001B170410DB0F1805F75
:101D9C003AD341F08001F170010F321D02E000BF17
:101DAC00324601461170A2EB0B00421C38785946A2
:101DBC0001F0FAF910B1CAF8008002E0287801307D
:101DCC00287042F64400C1F2000042F23851C1F2D0
:101DDC000001007800EB400001EBC000C16E006F09
:101DEC0081420BD042F63E04C1F20004207828B99F
:101DFC000120207000F048FD0020207005B0BDE8E7
:0C1E0C00F08F00BFB21CCDE7F21CCBE74A
:101E180070B50B46024643F25104C1F20004201D7E
:101E2800EFF311864FF0200181F31188802B23D323
:101E380043F080012171DD090021B1EB933F25D0EA
:101E480045F0800161719D0BB3F5001F26D345F065
:101E58008001A1715D0DB3F1805F27D345F080014A
:101E6800E1711D0F04F1080101F8015BFFF792FE13
:101E780086F3118870BD00BF01461D4601F8015B5D
:101E8800FFF788FE86F3118870BD00BF611D01F859
:101E9800015BFFF77FFE86F3118870BDA11D01F875
:101EA800015BFFF777FE86F3118870BDE11D01F82D
:0C1EB800015BFFF76FFE86F3118870BD20
:101EC4002DE9F0418E46844643F25105C1F20005E6
:101ED400281DEFF311884FF0200181F31188BEF122
:101EE400800F25D34EF0800129714FEADE170021BF
:101EF400B1EB9E3F24D047F0800169714FEA9E37D1
:101F0400BEF5001F24D347F08001A9714FEA5E5744
:101F1400BEF1805F56D347F08001E9714FEA1E7726
:101F240005F108063146802A01F8017B16D24FE0FC
:101F3400064677463146802A01F8017B0ED247E0F7
:101F44006E1D3146802A01F8017B07D240E000BFB4
:101F5400AE1D3146802A01F8017B39D30F4642F089
:101F6400800607F8016BD5090026B6EB923F1BD01B
:101F740045F080064E708C1C950BB2F5001F19D3EA
:101F840045F080078F7001F1030E550DB2F1805FAB
:101F940044D345F08004CC700F1D150F76463D7078
:101FA400B21C802B1AD23FE00E463D70B21C802B2F
:101FB40014D239E03E4627463D70B21C802B0DD228
:101FC40032E000BFEE1D3146802A01F8017BC5D204
:101FD40015460F463D70B21C802B25D3114643F0A5
:101FE400800701F8017BDF090026B6EB933F1DD083
:101FF40047F0800151709F0BB3F5001F0CD347F0DD
:10200400800191705F0DB3F1805F19D347F08001B7
:10201400D1701F0F111D09E0911C07E02646774679
:102024003D70B21C802BD9D211461F4601F8017BAA
:102034006246FFF7B1FD88F31188BDE8F08100BF67
:04204400D11CF3E7D1
:102048002DE9F8438E46844643F25104C1F2000458
:10205800201DEFF311884FF0200181F311884FF60E
:10206800FF79C0F21F09BEF1800F25D34EF0800121
:1020780021714FEADE160021B1EB9E3F24D046F0D5
:10208800800161714FEA9E36CE4525D946F0800120
:10209800A1714FEA5E56BEF1805F4BD346F08001D6
:1020A800E1714FEA1E7604F108073946802A01F8E3
:1020B800016B17D244E000BF074676463946802AAE
:1020C80001F8016B0ED23BE0671D3946802A01F802
:1020D800016B07D234E000BFA71D3946802A01F8FA
:1020E800016B2DD30D4642F0800705F8017BD4091A
:1020F8000027B7EB923F17D044F080074F708E1C33
:10210800940B4A4512D944F080078F7001F1030EF1
:10211800540DB2F1805FC0F09B8044F08004CC7015
:102128000D1D140F77460DE00F460BE02F46354680
:1021380008E000BFE71D3946802A01F8016BD1D2BB
:1021480014460D46089E2C70BA1C802B1CD31446CE
:1021580043F0800104F8011BD9090027B7EB933F2E
:1021680014D041F080015170990B4B4548D941F08A
:1021780080019170590DB3F1805F6DD341F08001FA
:10218800D170190F141D01E0144619462346099D04
:1021980003F8011B802E25D31F4646F0800107F85F
:1021A800011BF1090022B2EB963F23D041F08001D8
:1021B80059709A1CB10B4E4524D941F08001997091
:1021C80003F1030E710DB6F1805F47D341F0800132
:1021D800D9701F1D310F74463970A31C802D17D27A
:1021E80042E000BF31461F463970A31C802D0FD234
:1021F8003AE000BF1C463970A31C802D08D233E09A
:10220800941CC3E73C4617463970A31C802D2BD37A
:10221800194645F0800201F8012BEA090027B7EBBF
:10222800953F23D042F080015970AA0B4D450DD936
:1022380042F0800199706A0DB5F1805F20D342F0B9
:102248008001D9702A0F191D10E000BF991C0DE0FC
:102258003746754676E700BFD41C97E7144677469D
:102268003970A31C802DD3D219462A4601F8012BB8
:102278006246FFF78FFC88F31188BDE8F88300BF3A
:04228800D91CF3E783
:10228C002DE9F84F0546EFF311884FF0200181F34B
:10229C00118842F2F47AC1F2000A0068DAF80010F0
:1022AC00401A43F25106C1F2000606F1040B4FF638
:1022BC00FF79C0F21F0980281CD340F080013171D6
:1022CC00C1090022B2EB903F16D041F08001717130
:1022DC00810B484512D941F08001B171410DB0F12B
:1022EC00805F0DD341F08001F171000F06F10804FD
:1022FC0008E000BF5C4605E0741D02E0B41D00E080
:10230C00F41D0846224602F8010BA868802823D346
:10231C00114640F0800301F8013BC3090027B7EBDD
:10232C00903F1FD043F080035370971C830B48459C
:10233C001ED943F08001917002F1030C430DB0F1F2
:10234C00805F61D343F08001D170111D030F64468F
:10235C000B70686890B95DE0034611460B706868B5
:10236C0060B957E014460B70686838B952E000BF8A
:10237C000C4639460B70686800284BD04FF0FF3282
:10238C0081184B7843B18B7843B1CB7843B1097941
:10239C0004320029F4D104E0013202E0023200E000
:1023AC000332202A28BF2022A270E11CAAB302F01B
:1023BC000303571E032F15D322F00302524200BF12
:1023CC0010F8047B01F8047B10F8037C01F8037C03
:1023DC0010F8027C01F8027C10F8017C01F8017CF9
:1023EC000432EDD1CBB10A46077802F8017B012B00
:1023FC0002D1114611E000BF022B42784A7040F026
:10240C00A180023109E000BF3C4661460B70686850
:10241C000028B3D10020A070E11C58460922FFF718
:10242C00B7FBDAF800002968081A80281CD340F0A2
:10243C0080013171C1090022B2EB903F16D041F0FE
:10244C0080017171810B484512D941F08001B17145
:10245C00410DB0F1805F0DD341F08001F171000F9F
:10246C0006F1080208E000BF5A4605E0721D02E0C2
:10247C00B21D00E0F21D0846114601F8010BE86898
:10248C0080281FD30E4640F0800206F8012BC309AA
:10249C000022B2EB903F19D043F080024A708C1CA2
:1024AC00830B484514D943F080028A70CF1C430D2E
:1024BC00B0F1805F10D343F08002CA700E1D030F81
:1024CC003A460BE003460E4608E000BF0A4605E01C
:1024DC003246264602E000BF22463E463370901C30
:1024EC002A69802A1CD3014642F0800301F8013B83
:1024FC00D3090027B7EB923F14D043F08001417011
:10250C00930B4A451AD943F080018170530DB2F1F7
:10251C00805F15D343F08001C170130F011D01E0E2
:10252C00014613460020487001F8023B584615221C
:10253C00FFF72EFB88F31188BDE8F88F811CF1E7BB
:0C254C00C11CEFE780788870033166E75F
:1025580070B5EFF311864FF0200181F3118843F233
:102568005102C1F2000268B14FF0FF33C1184C7834
:1025780064B18D7865B1CD7865B1097904330029E6
:10258800F4D108E000201071511D38E0013302E059
:10259800023300E00333802B28BF80231371511DC1
:1025A8006BB303F003045D1E032D15D323F003035F
:1025B8005B4200BF10F8045B01F8045B10F8035C91
:1025C80001F8035C10F8025C01F8025C10F8015C89
:1025D80001F8015C0433EDD18CB10B46057803F8A2
:1025E800015B012C02D1194609E000BF022C437897
:1025F8004B7001D1023102E0807888700331101DE0
:0C2608000E22FFF7C7FA86F3118870BDA0
:1026140038B5EFF311854FF0200181F3118842F2B0
:10262400F471C1F200010968421A43F25101C1F286
:102634000001081D802A1BD342F080030B71D309CB
:102644000024B4EB923F15D043F080034B71930BFD
:10265400B2F5001F10D343F080038B71530DB2F118
:10266400805F0BD343F08003CB71120F083107E076
:10267400014605E0053102E0063100E007311A4663
:1026840001F8012B1322FFF787FA85F3118838BD6F
:1026940038B5EFF311854FF0200181F3118842F230
:1026A400F471C1F200010968421A43F25101C1F206
:1026B4000001081D802A1BD342F080030B71D3094B
:1026C4000024B4EB923F15D043F080034B71930B7D
:1026D400B2F5001F10D343F080038B71530DB2F198
:1026E400805F0BD343F08003CB71120F083107E0F6
:1026F400014605E0053102E0063100E007311A46E3
:1027040001F8012B0822FFF747FA85F3118838BD39
:1027140038B5EFF311854FF0200181F3118842F2AF
:10272400F471C1F200010968421A43F25101C1F285
:102734000001081D802A1BD342F080030B71D309CA
:102744000024B4EB923F15D043F080034B71930BFC
:10275400B2F5001F10D343F080038B71530DB2F117
:10276400805F0BD343F08003CB71120F083107E075
:10277400014605E0053102E0063100E007311A4662
:1027840001F8012B1D22FFF707FA85F3118838BDE4
:1027940038B5EFF311854FF0200181F3118842F22F
:1027A400F471C1F200010968421A43F25101C1F205
:1027B4000001081D802A1BD342F080030B71D3094A
:1027C4000024B4EB923F15D043F080034B71930B7C
:1027D400B2F5001F10D343F080038B71530DB2F197
:1027E400805F0BD343F08003CB71120F083107E0F5
:1027F400014605E0053102E0063100E007311A46E2
:1028040001F8012B0422FFF7C7F985F3118838BDBD
:1028140038B5EFF311854FF0200181F3118842F2AE
:10282400F471C1F200010968421A43F25101C1F284
:102834000001081D802A1BD342F080030B71D309C9
:102844000024B4EB923F15D043F080034B71930BFB
:10285400B2F5001F10D343F080038B71530DB2F116
:10286400805F0BD343F08003CB71120F083107E074
:10287400014605E0053102E0063100E007311A4661
:1028840001F8012B0622FFF787F985F3118838BD7B
:102894002DE9F04182B042F64404C1F200042078EC
:1028A4000DF107010122FFF701F90128C0F213819C
:1028B4009DF80700411E06290ED8DFE811F0070035
:1028C40053006F00AB00B700E900FF0001F036F8D9
:1028D40002B0BDE8F08100BF7F2800F0FC808028B2
:1028E40040F0FC8020780DF107010122FFF7DEF8AB
:1028F4000128C0F2F08042F2E470C1F200000068E6
:10290400002800F0E8809DF80730002B00F03E819D
:10291400591E0069002800F0DE8091B1006900288A
:1029240000F0D98001290CD00069002800F0D38080
:10293400022906D00069002800F0CD8004394A1C21
:10294400E7D143F25102C1F200025FB2EFF3118802
:102954004FF0200181F31188002FC0F2A981161DC8
:10296400ABE100BFEFF311844FF0200181F3118834
:1029740042F64C05C1F20005287850B143F25100EB
:10298400C1F20000043001460B22FFF705F90020D4
:10299400287084F3118802B0BDE8F08142F6080083
:1029A400C1F200000068002800F0A480006800283C
:1029B40000F0A080804703460A4643F25104C1F266
:1029C4000004201DEFF311884FF0200181F31188DA
:1029D400802BC0F0D98043F080012171D9090027F0
:1029E400B7EB933F00F0E48041F080016171990BF3
:1029F400B3F5001FC0F08E8141F08001A171590D23
:102A0400B3F1805FC0F0988141F08001E1711B0F48
:102A1400083493E142F60800C1F20000006800287F
:102A240059D04068002840F03F8154E043F25102FD
:102A3400C1F20002101DEFF311884FF0200181F361
:102A4400118842F60001C1F2000109688029C0F032
:102A5400818041F080031371CB090027B7EB913FCC
:102A640000F0908043F0800353718B0BB1F5001F8D
:102A7400C0F09C8043F0800393714B0DB1F1805FF3
:102A8400C0F09A8043F08003D3710B0F083294E0B6
:102A940043F25103C1F20003181DEFF311844FF008
:102AA400200181F3118842F63D01C1F2000191F940
:102AB4000020002A52DB014656E000BF42F2E470D7
:102AC400C1F20000046834B1E068002818BF8047F0
:102AD4002469002CF8D102B0BDE8F08140B200288E
:102AE400F9DA20780DF107010122FEF7DFFF02B0C9
:102AF400BDE8F08143F25102C1F2000241F2040147
:102B0400CEF20001101D0B68EFF311844FF0200189
:102B140081F31188802B31D343F080011171DD09D9
:102B24000021B1EB933F3FD045F0800151719D0BE3
:102B3400B3F5001F3ED345F0800191715D0DB3F1F3
:102B4400805FC0F0ED8045F08001D1711D0F02F16E
:102B54000801E6E002460B462FE000BF42F0800188
:102B64001971591DD2B2D20901F8012B1B22FFF7AA
:102B740013F884F3118802B0BDE8F08101461D46C4
:102B8400CFE000BF053218E00446D7E043F251011C
:102B9400C1F200010E1D0023EFF311884FF0200154
:102BA40081F3118889E000BF511DBAE0063204E0C8
:102BB4000534C2E0911DB4E00732114601F8013B2F
:102BC40042F2FC73C1F200031B68802B20D30E4633
:102BD40043F0800206F8012BDD090022B2EB933F9B
:102BE4001AD045F080024A708F1C9D0BB3F5001F6C
:102BF40014D345F080028A70CC1C5D0DB3F1805F64
:102C040010D345F08002CA700E1D1D0F22460BE042
:102C14001D460E4608E000BF0A4605E032463E4621
:102C240002E000BF3A462646357042F2F471C1F222
:102C3400000102320B68802B1ED3114643F080073B
:102C440001F8017BDD090027B7EB933F1BD045F06A
:102C5400800151709D0BB3F5001F11D345F0800125
:102C640091705D0DB3F1805F0CD345F08001D1709C
:102C74001D0F111D07E000BF11461D4603E000BFF4
:102C8400911C00E0D11C00224A7001F8025B18225A
:102C9400FEF782FF88F3118842F60400C1F20000B7
:102CA400006800283FF417AF804702B0BDE8F08108
:102CB40043F080011171561DDB09314601F8013BD7
:102CC4008368802B20D30A4643F0800702F8017BF7
:102CD400DD090027B7EB933F1AD045F080074F700A
:102CE4008F1C9D0BB3F5001F16D345F080028A702C
:102CF400CC1C5D0DB3F1805F5CD345F08002CA70DB
:102D04000A1D1D0F264657E01D460A4654E000BF23
:102D14000E4651E0063410E016463A464CE000BF39
:102D2400D11D01F8015B0C22FEF736FF84F31188F4
:102D340002B0BDE8F08100BF07340B462146802A6B
:102D440001F8013B20D30D4642F0800305F8013B16
:102D5400D3090027B7EB923F1AD043F080034B709E
:102D64008E1C930BB2F5001F14D343F080038B70B9
:102D7400CF1C530DB2F1805F10D343F08003CB70AE
:102D84000D1D130F3C460BE013460D4608E000BF33
:102D94000C4605E02C46354602E000BF34463D466D
:102DA4002B70A11C0D22FEF7F7FE88F3118802B0E8
:102DB400BDE8F0813E4622461570006870B14FF0C0
:102DC400FF33C1184A786AB18A786AB1CA786AB19D
:102DD400097904330029F4D109E000BF0020B07060
:102DE400F11C36E0013302E0023300E00333802BB0
:102DF40028BF8023B370F11C5BB303F003025F1E92
:102E0400032F14D323F003035B4210F8047B01F86F
:102E1400047B10F8037C01F8037C10F8027C01F8B1
:102E2400027C10F8017C01F8017C0433EDD182B1FD
:102E34000B46077803F8017B012A01D1194608E003
:102E4400022A42784A7001D1023102E08078887007
:102E5400033143F25100C1F2000004301622FEF7A0
:0C2E64009BFE88F3118802B0BDE8F081ED
:102E70004EF62C51CEF200010A68002A02D400BF9F
:102E8000FEE700BF0A6842F000420A608169023131
:042E900081617047A5
:102E940053EA020C61D02DE9F04BB3FA83F51E001E
:102EA40007BFB2FA82F502FA05F403FA05F41646EE
:102EB400C5F120051EBF22FA05F73C43203556EA2A
:102EC400044C4FEA144418BF0134A3464FF00009E0
:102ED400C846904271EB030C39D3094207BFB0FADC
:102EE40080F700FA07F6B1FA81F701FA07F6C7F19D
:102EF40020071EBF20FA07FC46EA0C062037B6FB63
:102F0400FBFC7F1B103F07F01F04C4F120060CFAE2
:102F140004F42CFA06F644BF34460026202FA4BF3E
:102F24002646002454EA060C08BF012418EB0408C2
:102F340049EB0609A4FB027CC01B06FB02CC04FB84
:102F440003CC71EB0C01904271EB030CC5D20B4620
:102F5400024649464046BDE8F08BB2FBF3F200BF9F
:0C2F64001AB1013A8B5C8354FBD170471A
:102F700000220B0011001A0012B1013A8154FCD159
:042F8000704700BFD7
:042F8400C8C80000B9
:042F880025490008CF
:0C2F8C0001000000800000000040000078
:042F98002000000015
:102F9C00C13C0008DF45000805460008AB460008A8
:102FAC009526000895270008774600081528000884
:102FBC00953E000851460008B9450008191E000846
:102FCC0061360008C51E00086D3700089D460008D4
:102FDC00152600082B4600080D3D0008893D000809
:0C2FEC001527000849200008953F000848
:082FF800C1030008D9400008E4
:103000005548816861B9714611F0100F1CBF08B0B6
:1030100016E052490A6822F001020A601AB00FE075
:10302000EFF309821EF0100F03D1A2F1400282ECEF
:10303000108AA2F12802036882E8F84F83685A6078
:10304000474988478168D9B14A6892E8F84F0360D8
:1030500002F128021EF0100F01D1B2EC108A82F3A7
:10306000098890693F49404A884201DB904206DB6B
:1030700013F47F4F03D14FF0000181F311887047A3
:103080003A483B490968401A80F308884FF080713C
:10309000C161384981617FF0060E704701BC364836
:1030A0008047204602BC88475DF804EB3349084757
:1030B00033480068002809D0EFF314816A4673464C
:1030C000A0E8FE0F80EC108A2E4880472E482F493A
:1030D0000968401A20F0070080F308884FF00001CB
:1030E0002B48417081F3118862B62A494FF0805213
:1030F0000A60BFF34F8FBFF36F8FFEE7264800686B
:10310000B0E8FE0F81F31488BFF36F8F95469E469B
:1031100090EC108A704703680CB44FF000014170C6
:103120004FF0000181F311881A494FF080520A6074
:10313000BFF34F8FBFF36F8F4FF0800181F3118882
:103140000CBC0360704713494FF080520A60BFF314
:103150004F8FBFF36F8F70470000001034EF00E017
:10316000B50800081731000844310008E0FF0220CC
:10317000982F0008DD3400082D0E00088943000850
:1031800028280010010E000800000320982F0008D6
:0C3190000000001004ED00E028280010F2
:10319C001EF0040F0CBFEFF30880EFF30980014918
:0831AC0008470000712E000825
:1031B400F0B400EB4003DFF8880000EBC30000F13B
:1031C40018063069F7687568874232D3B368DC1B28
:1031D400631E934214D37D19D01900BF11F8013B2B
:1031E40005F8013B013A05D011F8013B05F8013B14
:1031F400013AF3D1BFF35F8FF0600120F0BC704758
:10320400C018904219D37819121B11F8013B00F829
:10321400013B013CF9D1141C05D011F8013B05F820
:10322400013B013AF9D1BFF35F8FF4600120F0BC98
:103234007047C01B01389042CDD20020F0BC7047CB
:043244003825001019
:0E324800002001F0F9F83220FDF752F9F8E706
:02325600FEE791
:0E325800012001F0F1F8C820FDF74AF9F8E76F
:02326600FEE781
:1032680010B54FF0800080F3118800BF00BF40F216
:103278000004C1F200042078013020706078013029
:103288006070E06B08B10068804742F2D870C1F204
:1032980000000068002818BF80472078012805D161
:1032A800606818B1E06B28B1806802E0E06B08B193
:1032B800406880476078013860702078012804D120
:1032C8006068002818BFFFF73AFF2078013820709F
:0A32D8004FF0000080F3118810BDD4
:0232E200FEE705
:1032E4002DE9F04142F64100C1F20000007878B1C6
:1032F40042F65000C1F20000017801290AD142F6D9
:103304000C00C1F20000016811F8170C00283DD12F
:10331400BDE8F0814EF60851CEF20001096821F0B3
:103324003F0142F60C02C1F2000209681160002359
:1033340001F8173C1168082701F8027C116812276C
:1033440001F8037C116801F8183C116801F8163C77
:103354001168522701F8017C42F63C01C1F20001D8
:103364000B7001210170116842F2DC70C1F200009F
:10337400A1F11502026042F2E070C1F20000A1F175
:103384002002026011F8170C0028C1D042F2E8763E
:10339400C1F20006306810B10138306050D00846E0
:1033A40010F8182D9AB342F2CC75C1F200052968C1
:1033B40031B342F2E072C1F2000217680278037876
:1033C400F3B1C2F10804385D884742F60C08C1F233
:1033D4000008D8F8000010F8181D022910D3E019CD
:1033E400A0F10807092400BF385D29688847D8F888
:1033F4000000611C10F8182DE31F93420C46F3D310
:103404000021017042F60C00C1F20000016811F8BD
:10341400160C00287FF47CAF002542F63C04C1F270
:1034240000043560207801282AD142F63900C1F21F
:1034340000000078FEF7C6F92570BDE8F08100BFF2
:10344400002442F63C00C1F2000001F8174C42F29D
:10345400D475C1F200050470286838B1804700288B
:1034640004D400BF286880470028FBDA42F60C0029
:10347400C1F20000006800F8184CBDE8F08100BFFC
:1034840042F2C871C1F20001086800283FF440AF5D
:103494004FF0800080F3118800BF00BF42F6400463
:1034A400C1F200042278002A04BF0120207040F2F7
:1034B4000000C1F20000407818B94FF0000080F31A
:1034C4001188002A18BFBDE8F081086880470020F1
:0634D4002070BDE8F0814C
:0234DA00FEE70B
:0234DC00FEE709
:0234DE00FEE707
:1034E0002DE9F04142F2385EC1F2000E8C469EF8A2
:1034F0000010002947D10321CEF81010CEF8141087
:1035000044F64711C0F60001CEF8181042F65104F7
:10351000C1F20004CEF81C404FF48064CEF8204085
:103520000024CEF82840CEF82440CEF82C40CEF827
:10353000601043F23411C1F20001CEF86410102182
:10354000CEF86810CEF87040CEF86C4045F252418B
:10355000C0F25401CEF80710CEF87440BFF35F8F6D
:1035600044F24751C0F25201CEF8031044F25351D5
:10357000C4F24771CEF80010BFF35F8F20218EF8A0
:103580000610BFF35F8F0EF1340600250127EFF31D
:1035900011884FF0200181F3118856F8181C19B3D7
:1035A000DEF810108F4225DA316859B3DEF810408A
:1035B000791CA1422EDAB16951B3DEF81040B91C72
:1035C000A14227DA316B00293CD06036391D043521
:1035D000DEF810400337A7420F46DEDB0139DEF884
:1035E0001050A9421ADB33E0791EDEF81050A942D0
:1035F00014DB2DE045F00101DEF81050A9420DDB8F
:1036000026E000BF3946DEF81050A94206DB1FE075
:1036100045F00201DEF81050A94219DA01EB41052C
:103620000EEBC507B861C7F81CC03A620020B8624B
:103630007862FB62BFF35F8F88F311880846BDE8AC
:10364000F08100BF45F00301DEF81050A942E5DB30
:0E3650004FF0FF3188F311880846BDE8F08185
:02365E00FEE785
:103660002DE9F0410B46844643F25104C1F20004B7
:10367000201DEFF311884FF0200181F31188802B7A
:1036800020D343F080012171DD090021B1EB933F8C
:1036900020D045F0800161719D0BB3F5001F21D34F
:1036A00045F08001A1715D0DB3F1805F48D345F015
:1036B0008001E1711D0F08342146802A01F8015B69
:1036C00016D243E004461D462146802A01F8015BDC
:1036D0000ED23BE005342146802A01F8015B07D277
:1036E00034E000BF06342146802A01F8015B2DD367
:1036F0000D4642F0800305F8013BD3090027B7EBE4
:10370000923F17D043F080034B708E1C930BB2F5A1
:10371000001F11D343F080038B70CF1C530DB2F107
:10372000805F1FD343F08003CB700D1D130F3C4609
:103730000EE000BF0C460BE02C46354608E000BF0B
:1037400007342146802A01F8015BD1D213460D4689
:103750002B70A11C6246FEF721FA88F31188BDE8A0
:0A376000F08100BF34463D46F2E759
:02376A00FEE778
:10376C002DE9F8438E46844643F25104C1F200041D
:10377C00201DEFF311884FF0200181F311884FF6D3
:10378C00FF79C0F21F09BEF1800F25D34EF08001E6
:10379C0021714FEADE150021B1EB9E3F24D045F09C
:1037AC00800161714FEA9E35CE4525D945F08001E7
:1037BC00A1714FEA5E55BEF1805F4BD345F080019D
:1037CC00E1714FEA1E7504F108073C46802A04F8A3
:1037DC00015B17D244E000BF074675463C46802A81
:1037EC0004F8015B0ED23BE0671D3C46802A04F8CE
:1037FC00015B07D234E000BFA71D3C46802A04F8C9
:10380C00015B2DD3214642F0800701F8017BD509DD
:10381C000027B7EB923F17D045F080076770A61CC6
:10382C00950B4A4512D945F08001A17004F1030EA5
:10383C00550DB2F1805F6BD345F08001E170211D15
:10384C00150F77460EE000BF27460BE00F463146BA
:10385C0008E000BFE71D3C46802A04F8015BD1D28A
:10386C0015462146089E0D70BD1C802B1CD32C4682
:10387C0043F0800104F8011BD9090022B2EB933FFD
:10388C0014D041F080016970990B4B453AD941F045
:10389C008001A970590DB3F1805F3DD341F08001D7
:1038AC00E970190F2C1D01E02C4619462346802E79
:1038BC0003F8011B20D3194646F0800201F8012BB6
:1038CC00F2090027B7EB963F1AD042F080025A70EB
:1038DC009F1CB20B4E4517D942F080019970DD1C2C
:1038EC00720DB6F1805F19D342F08001D970191DA9
:1038FC00320F2C4614E000BF3246194610E000BFD0
:10390C001C460DE0AC1CD1E70C46394608E000BF64
:10391C0037467146A6E700BFEC1CC7E73C46294674
:10392C000A70A11C6246FEF733F988F31188BDE8D2
:02393C00F8830E
:02393E00FEE7A2
:103940002DE9F04742F64C00C1F200000121017060
:10395000EFF3118A4FF0200181F3118842F64800FD
:10396000C1F20000007844F61211C0F600010A22EC
:10397000FFF720FC8AF31188EFF311864FF0200146
:1039800081F3118843F25105C1F2000505F1040AE3
:10399000504651460A22FEF701F986F31188EFF3EB
:1039A00011884FF0200181F3118842F60000C1F226
:1039B00000004FF6FF79C0F21F09006880281BD372
:1039C00040F080012971C2090021B1EB903F17D06E
:1039D00042F080016971820B484513D942F08001A1
:1039E000A971420DB0F1805F0ED342F08001E97100
:1039F000020F05F1080108E05146024605E000BF4C
:103A0000691D02E0A91D00E0E91D084600F8012B30
:103A100042F2FC72C1F200021268802A20D30646EC
:103A200042F0800106F8011BD3090021B1EB923F5F
:103A30001AD043F080014170871C930B4A4515D979
:103A400043F08001817000F1030C530DB2F1805FEF
:103A500010D343F08001C170061D130F61460BE0C7
:103A60001346064608E000BF014605E031463E46E3
:103A700002E000BF39466646337042F2F472C1F28A
:103A80000002881C1268802A1ED3014642F080037F
:103A900001F8013BD3090027B7EB923F16D043F062
:103AA00080014170930B4A4540F2B08043F08001A1
:103AB0008170530DB2F1805FC0F0B08043F080019F
:103AC000C170130F011D01E001461346002048702C
:103AD00001F8023B50461822FEF760F888F311887F
:103AE00042F60400C1F200000068002818BF8047B9
:103AF00042F60804C1F20004206878B3006868B395
:103B000080470A46EFF311884FF0200181F31188B6
:103B1000802851D340F080012971C1090023B3EB03
:103B2000903F75D041F080016971810B484540F2AA
:103B3000778041F08001A971410DB0F1805FC0F044
:103B4000A58041F08001E971000F05F108031946D5
:103B5000802A01F8010B35D2A0E000BF41F2040039
:103B6000CEF200000068EFF311864FF0200181F3E0
:103B7000118880281CD340F080012971C2090021DE
:103B8000B1EB903F40D042F080016971820B484513
:103B900042D942F08001A971420DB0F1805F45D356
:103BA00042F08001E971020F05F108013FE000BF1A
:103BB000514602463BE000BF53461946802A01F8B1
:103BC000010B6BD30E4642F0800006F8010BD009C2
:103BD0000023B3EB923F1DD040F0800048708F1C53
:103BE000900B4A451ED940F08000887001F1030C0B
:103BF000500DB2F1805F5FD340F08000C8700E1DA1
:103C0000100F63464CE000BF691D10E0811C5DE7AA
:103C10006B1D3CE00B4643E0A91D08E0C11C55E7C5
:103C2000AB1D34E033463E463AE000BFE91D01F8E3
:103C3000012B50460C22FDF7B1FF86F31188206856
:103C400018B14068002818BF8047EFF311864FF085
:103C5000200181F3118842F63D00C1F2000090F985
:103C60000000002802DB514606E000BF40F0800162
:103C70002971691DC0B2C00901F8010B50461B2211
:103C8000FDF78CFF86F31188BDE8F087EB1D084631
:103C90001946802A01F8010BBFF494AF10460E4676
:103CA0003070991C50460D22FDF778FF88F311887B
:0E3CB00020680028C5D1C8E73B466646F0E70D
:023CBE00FEE71F
:103CC00010B543F25103C1F20003181DEFF3118444
:103CD0004FF0200181F311884EF60451CEF200011D
:103CE00009680A466FF35F22802A05D341F08001FC
:103CF0001971591DD20900E0014601F8012B022279
:0A3D0000FDF74CFF84F3118810BD9D
:023D0A00FEE7D2
:103D0C0038B5024643F25103C1F20003181DEFF31C
:103D1C0011854FF0200181F31188802A1CD342F0C9
:103D2C0080011971D4090021B1EB923F18D044F0F5
:103D3C0080015971940BB2F5001F13D344F080012C
:103D4C009971540DB2F1805F0ED344F08001D9719A
:103D5C00140F03F1080108E00146144605E000BF0A
:103D6C00591D02E0991D00E0D91D01F8014B1C22E0
:0A3D7C00FDF70EFF85F3118838BD36
:023D8600FEE756
:103D88002DE9F0410A46034643F25104C1F200040A
:103D9800201DEFF311884FF0200181F31188802B4B
:103DA80020D343F080012171DD090021B1EB933F5D
:103DB80020D045F0800161719D0BB3F5001F21D320
:103DC80045F08001A1715D0DB3F1805F48D345F0E6
:103DD8008001E1711D0F08342146802A01F8015B3A
:103DE80016D243E004461D462146802A01F8015BAD
:103DF8000ED23BE005342146802A01F8015B07D248
:103E080034E000BF06342146802A01F8015B2DD337
:103E18000D4642F0800305F8013BD3090027B7EBB4
:103E2800923F17D043F080034B708E1C930BB2F572
:103E3800001F11D343F080038B70CF1C530DB2F1D8
:103E4800805F1FD343F08003CB700D1D130F3C46DA
:103E58000EE000BF0C460BE02C46354608E000BFDC
:103E680007342146802A01F8015BD1D213460D465A
:103E78002B70A11C1C22FDF78DFE88F31188BDE86C
:0A3E8800F08100BF34463D46F2E72A
:023E9200FEE749
:103E94002DE9F0410A46EFF311884FF0200181F338
:103EA400118842F2F471C1F2000143F25103C1F2EC
:103EB40000030968411A181D802921D341F08007A5
:103EC4001F71CF090026B6EB913F41D047F0800720
:103ED4005F718F0BB1F5001F3ED347F080079F71D0
:103EE4004F0DB1F1805F3DD347F08007DF71090FBB
:103EF40003F108042346802A03F8011B06D238E0A4
:103F040004462346802A03F8011B32D31D4642F09F
:103F1400800105F8011BD1090027B7EB923F19D0A6
:103F240041F0800159709E1C910BB2F5001F15D30E
:103F340041F080019970DF1C510DB2F1805F23D3F1
:103F440041F08001D9701D1D110F3C4613E000BFE4
:103F54005C1D08E01C460EE09C1D04E02C46354622
:103F640009E000BFDC1D39462346802A03F8011B03
:103F7400CCD211461D462970A11C0722FDF70CFE68
:0E3F840088F31188BDE8F08134463D46F3E72E
:023F9200FEE748
:103F940070B50A46EFF311864FF0200181F31188C2
:103FA40042F2F471C1F200010968431A43F251016B
:103FB400C1F20001081D802B1ED343F080040C7154
:103FC400DC090025B5EB933F28D044F080054D7102
:103FD4009C0BB3F5001F57D344F080058D715C0D25
:103FE400B3F1805F5ED344F08005CD711B0F0831BF
:103FF4000B702AB95BE000BF01460B70002A56D053
:104004004FF0FF33D418657855B1A57855B1E578EC
:1040140055B125790433002DF4D106E0053142E091
:10402400013302E0023300E00333802B28BF8023F6
:104034004B70023113B303F003045D1E032D15D33B
:1040440023F003035B4200BF12F8045B01F8045B36
:1040540012F8035C01F8035C12F8025C01F8025CDC
:1040640012F8015C01F8015C0433EDD134B10B4664
:10407400157803F8015B012C08D119461922FDF7C4
:104084008BFD86F3118870BD06310CE0022C537849
:104094004B7015D102311922FDF77EFD86F311888C
:1040A40070BD00BF073123460B70002AA8D100223F
:1040B4004A7002311922FDF76FFD86F3118870BD35
:1040C40092788A7003311922FDF766FD86F3118810
:0240D40070BDBD
:0240D600FEE703
:1040D80030B585B0FCF788FE40F20000C1F2000060
:1040E800C568A5B16C4600BFFCF77EFE00956869FF
:1040F80005F128030ECBCDE90110CDE903322046A6
:10410800FEF7C0F8FCF774F92D68002DECD142F6E3
:104118002000C1F2000004683CB100BFD4E90101ED
:10412800FFF734FF2468002CF8D1FCF761F905B0DB
:0241380030BD98
:02413A00FEE79E
:10413C0010B54FF0800080F3118800BF00BF40F233
:10414C000004C1F200042078013020706078013046
:10415C006070E06B08B10068804742F2D070C1F229
:10416C0000000068002818BF80472078012805D17E
:10417C00606818B1E06B28B1806802E0E06B08B1B0
:10418C00406880476078013860702078012804D13D
:10419C006068002818BFFEF7D0FF20780138207027
:0A41AC004FF0000080F3118810BDF1
:0241B600FEE722
:0241B800FEE720
:0241BA00FEE71E
:0241BC00FEE71C
:0241BE00FEE71A
:0241C000FEE718
:0241C200FEE716
:0241C400FEE714
:0241C600FEE712
:0241C800FEE710
:0241CA00FEE70E
:0241CC00FEE70C
:0241CE00FEE70A
:0241D000FEE708
:0241D200FEE706
:0241D400FEE704
:0241D600FEE702
:0241D800FEE700
:0241DA00FEE7FE
:0241DC00FEE7FC
:0241DE00FEE7FA
:0241E000FEE7F8
:0241E200FEE7F6
:0241E400FEE7F4
:0241E600FEE7F2
:0241E800FEE7F0
:0241EA00FEE7EE
:0241EC00FEE7EC
:0241EE00FEE7EA
:0241F000FEE7E8
:0241F200FEE7E6
:0241F400FEE7E4
:0241F600FEE7E2
:0241F800FEE7E0
:0241FA00FEE7DE
:0241FC00FEE7DC
:0241FE00FEE7DA
:02420000FEE7D7
:02420200FEE7D5
:02420400FEE7D3
:02420600FEE7D1
:02420800FEE7CF
:02420A00FEE7CD
:02420C00FEE7CB
:02420E00FEE7C9
:02421000FEE7C7
:02421200FEE7C5
:02421400FEE7C3
:02421600FEE7C1
:02421800FEE7BF
:02421A00FEE7BD
:02421C00FEE7BB
:02421E00FEE7B9
:02422000FEE7B7
:02422200FEE7B5
:02422400FEE7B3
:02422600FEE7B1
:02422800FEE7AF
:02422A00FEE7AD
:02422C00FEE7AB
:02422E00FEE7A9
:02423000FEE7A7
:02423200FEE7A5
:02423400FEE7A3
:02423600FEE7A1
:02423800FEE79F
:02423A00FEE79D
:02423C00FEE79B
:02423E00FEE799
:02424000FEE797
:02424200FEE795
:02424400FEE793
:02424600FEE791
:02424800FEE78F
:02424A00FEE78D
:02424C00FEE78B
:10424E0000B583B0FCF7FFFDFDF7BFFB00F0AFF844
:10425E00002000F0DDF802204FF4005140F2700211
:10426E00C1F20002CDE90021029042F20470C1F2C7
:10427E00000044F61C11C0F6000144F2A123C0F662
:10428E0000036422FCF7DBF8FCF713FE002003B0FA
:02429E0000BD61
:1042A00030B583B0FCF7A4FD02244FF4007542F250
:1042B0007020C1F20000CDE90005029442F2AC602A
:1042C000C1F2000044F65411C0F6000143F2492344
:1042D000C0F600036422FCF7B9F842F27000C1F2A4
:1042E0000000CDE90005029442F25460C1F20000E2
:1042F00044F65C11C0F6000143F25923C0F60003F6
:104300003222FCF7A3F8002003B0BDE83040FCF7F0
:0243100065B98D
:0E431200A0FB030401FB03410023FEF7BABD2C
:064320002046294670BD95
:0E432600C0E910216FF00201416200217047D2
:06433400C16820460847A5
:10433A00206A04F124030ECB01300132206243F1DA
:0A434A000003C4E90A23401A70477B
:0A4354000120607184F83800704702
:0A435E00013884F8410000067047A2
:0E4368000268416A0A60006800B14162704755
:104376008268D2E9001201B14A60002383601160AD
:0243860070477E
:02438800FEE74E
:10438A0010B5FCF778FF0446FCF775FF40EA0440D5
:02439A0010BD54
:10439C0010B50446000CFDF70DF82046FDF70AF8A1
:0243AC0010BD42
:0E43AE0056FA82F090F820000231317170470B
:1043BC0043F63000C4F20200016841F002010160D2
:1043CC0040F20040C4F20200016821F003010160D8
:1043DC00016841F001010160416921F00101416175
:1043EC00016821F440410160016841F480410160A1
:1043FC00416921F080014161016821F04051016067
:10440C00016841F080510160416921F480414161B2
:02441C007047E7
:10441E00022888BF704742F68C71C0F6000151F831
:10442E00200040F21441C4F202010A6810430860F1
:02443E007047C5
:10444000022888BF704742F68C71C0F6000151F80F
:10445000200040F21441C4F202010A685040086092
:024460007047A3
:1044620080B541F20000CEF200000168890106D455
:104472000168C90702BF016841F00101016043F20E
:104482005010C1F20000006842F6F872C0F6000255
:1044920044F2B143C0F60003014600F0D3F942F6FC
:0E44A2009C70C0F60000BDE80840FBF716BF96
:1044B00080B544F68C10C0F60000FEF74DF844F6C7
:0E44C0003A10C0F60000BDE80840FEF745B80F
:1044CE0030B542F2385EC1F2000E8C469EF80010F6
:1044DE00002947D10321CEF81010CEF8141044F65F
:1044EE004711C0F60001CEF8181042F65104C1F281
:1044FE000004CEF81C404FF48064CEF82040002417
:10450E00CEF82840CEF82440CEF82C40CEF86010DD
:10451E0043F23411C1F20001CEF864101021CEF82E
:10452E006810CEF87040CEF86C4045F25241C0F2A1
:10453E005401CEF80710CEF87440BFF35F8F44F2EB
:10454E004751C0F25201CEF8031044F25351C4F257
:10455E004771CEF80010BFF35F8F20218EF8061042
:10456E00BFF35F8F022884BF4FF0FF3030BD039D35
:10457E00EFF311844FF0200181F3118850B100EB5D
:10458E0040010EEBC101C1F860C04A668B66002285
:10459E000A67CA6600EB40000EEBC0004567BFF32A
:0A45AE005F8F84F31188002030BDF8
:1045B80010B50246EFF311844FF0200181F3118802
:1045C80043F25100C1F2000004300146FDF7E2FA5F
:0645D80084F3118810BD00
:1045DE0010B5EFF311844FF0200181F3118843F2EF
:1045EE005100C1F20000043001460322FDF7CFFA5C
:0645FE0084F3118810BDDA
:1046040010B5EFF311844FF0200181F3118843F2C8
:104614005100C1F20000043001461222FDF7BCFA39
:0646240084F3118810BDB3
:10462A0010B5EFF311844FF0200181F3118843F2A2
:10463A005100C1F20000043001461422FDF7A9FA24
:06464A0084F3118810BD8D
:1046500010B5EFF311844FF0200181F3118843F27C
:104660005100C1F20000043001461122FDF796FA14
:0646700084F3118810BD67
:1046760010B5EFF311844FF0200181F3118843F256
:104686005100C1F20000043001460522FDF783FA0D
:0646960084F3118810BD41
:0E469C0042F2F471C1F200010968401A704741
:1046AA0010B586B00446FCF79EFB0194606904F1DC
:1046BA0028030ECBCDE90210CDE9043201A8FDF79B
:0A46CA00E0FDFBF794FE06B010BD02
:1046D40010B5044600F0A1F842F63800C1F200001B
:1046E40043F24C12C1F20002017871B90121017048
:1046F400106843F25811C1F2000143F25863C1F249
:104704000003591A0023C0E90031E4B32046D2F86B
:1047140000E050F804CDBEF1000F12D0864517D248
:104724007246114612680AB18242FAD344F8042C44
:10473400C4F800C00860F2B100EB0C0393421AD134
:1047440011E0C4F800C01060002044F8040C1AE022
:1047540044F804ECC4F800C0106000EB0C0171458F
:1047640011D1002172468645D2E900320360944497
:10477400C4F800C007D24A688B18834202BF62445F
:0E4784000068C1E90002BDE8104000F048B82E
:10479200FCF7B3FE4EF68850CEF20000016851F4E9
:0847A20070010160FBF701FD4D
:0447AA0068467047A6
:1047AE0080B5FBF77EFD0138B0FA80F0400908BDF8
:0847BE00C66AC16B20460847E2
:0847C600C66AC16B20460847DA
:0847CE00C66AC16B20460847D2
:0847D600C66AC16B20460847CA
:0447DE00FCF761BDC6
:1047E20080B5FCF75EFD002804D4C0B200F028F8C2
:0847F200002000E0012008BDD9
:0C47FA0042F2CC71C1F20001086070476F
:0C48060042F2C871C1F200010860704766
:0C48120042F2D471C1F20001086070474E
:04481E00FBF7E1BC07
:04482200FBF7FFBCE5
:0C4826004EF21800CEF20000006870474F
:104832004EF60450CEF20000006800F0806070472F
:04484200FCF72FBF91
:104846002DE9F8431E4617468946044644F6B8182D
:10485600C0F6000842F65141C1F20001002540466B
:104866004FF480620023FEF738FE42F64801C1F29B
:104876000001087042F64401C1F20001087000957B
:10488600C0B243F24412C1F2000241460823FFF7C8
:104896001BFE42F2F470C1F200004FF0805101603D
:1048A60042F60800C1F20000076042F60400C1F2B9
:1048B6000000066042F64C00C1F20000057041F2AD
:1048C6000400CEF2000042F2FC71C1F20001006861
:1048D600C1F8009042F60001C1F200010C6042F2FC
:0C48E600F871C1F200010860BDE8F88321
:0F48F200436F72746578204D34462F4D37460062
:074901007637764C5350009D
:0A4908004F535F49646C65282900D5
:0A491200000000000000000000009B
:09491C004D61696E5461736B007A
:1049250053454747455220656D624F5320563531F3
:05493500343030750074
:0D493A00492331353D5379735469636B0097
:094947005465726D696E616C002B
:04495000291600081C
:084954004850205461736B0010
:08495C004C50205461736B0004
:10496400080C1014182000040C1014181C20282CF7
:084974003034383C404448494E
:10497C000000000000000000010203040607080903
:10498C004E3D656D624F532073746172742070726A
:10499C006F6A6563742C4F3D656D624F532C443DBB
:0C49AC0053544D3332463432395A49001E
:0849B80053797356696577001D
:1049C00004480549091A082903DB00220260043063
:0C49D0000160704758310010583600108C
:1049DC00754605480549884205D00268043003B481
:1049EC00904703BCF7E72847504900085449000892
:1049FC005D4A000800000010432800005D4A0008D2
:104A0C0044280010010000005D4A000848280010EE
:104A1C00010000005D4A00084C2800100100000055
:104A2C005D4A000850280010FC0800006F4A00087E
:104A3C004C310010544A000808000000C14900081D
:084A4C00DD490008B701000874
:084A5400583100100024F400A9
:104A5C00206861680834002200E042540139FCD51A
:024A6C00704791
:104A6E0020686168A2680C3401E08B5C8354013AC3
:044A7E00FBD57047AD
:040000050800479315
:00000001FF
